{
  "_format": "hh-sol-artifact-1",
  "contractName": "MiniswapRouter",
  "sourceName": "contracts/core/MiniswapRouter.sol",
  "abi": [
    {
      "inputs": [
        {
          "internalType": "address",
          "name": "_factory",
          "type": "address"
        },
        {
          "internalType": "address",
          "name": "_WETH",
          "type": "address"
        }
      ],
      "stateMutability": "nonpayable",
      "type": "constructor"
    },
    {
      "inputs": [],
      "name": "WETH",
      "outputs": [
        {
          "internalType": "address",
          "name": "",
          "type": "address"
        }
      ],
      "stateMutability": "view",
      "type": "function"
    },
    {
      "inputs": [
        {
          "internalType": "address",
          "name": "tokenA",
          "type": "address"
        },
        {
          "internalType": "address",
          "name": "tokenB",
          "type": "address"
        },
        {
          "internalType": "uint256",
          "name": "amountADesired",
          "type": "uint256"
        },
        {
          "internalType": "uint256",
          "name": "amountBDesired",
          "type": "uint256"
        },
        {
          "internalType": "uint256",
          "name": "amountAMin",
          "type": "uint256"
        },
        {
          "internalType": "uint256",
          "name": "amountBMin",
          "type": "uint256"
        },
        {
          "internalType": "address",
          "name": "to",
          "type": "address"
        },
        {
          "internalType": "uint256",
          "name": "deadline",
          "type": "uint256"
        }
      ],
      "name": "addLiquidity",
      "outputs": [
        {
          "internalType": "uint256",
          "name": "amountA",
          "type": "uint256"
        },
        {
          "internalType": "uint256",
          "name": "amountB",
          "type": "uint256"
        },
        {
          "internalType": "uint256",
          "name": "liquidity",
          "type": "uint256"
        }
      ],
      "stateMutability": "nonpayable",
      "type": "function"
    },
    {
      "inputs": [],
      "name": "factory",
      "outputs": [
        {
          "internalType": "address",
          "name": "",
          "type": "address"
        }
      ],
      "stateMutability": "view",
      "type": "function"
    },
    {
      "inputs": [
        {
          "internalType": "uint256",
          "name": "amountIn",
          "type": "uint256"
        },
        {
          "internalType": "uint256",
          "name": "reserveIn",
          "type": "uint256"
        },
        {
          "internalType": "uint256",
          "name": "reserveOut",
          "type": "uint256"
        }
      ],
      "name": "getAmountOut",
      "outputs": [
        {
          "internalType": "uint256",
          "name": "amountOut",
          "type": "uint256"
        }
      ],
      "stateMutability": "pure",
      "type": "function"
    },
    {
      "inputs": [
        {
          "internalType": "uint256",
          "name": "amountIn",
          "type": "uint256"
        },
        {
          "internalType": "uint256",
          "name": "amountOutMin",
          "type": "uint256"
        },
        {
          "internalType": "address[]",
          "name": "path",
          "type": "address[]"
        },
        {
          "internalType": "address",
          "name": "to",
          "type": "address"
        },
        {
          "internalType": "uint256",
          "name": "deadline",
          "type": "uint256"
        }
      ],
      "name": "swapExactTokensForTokens",
      "outputs": [
        {
          "internalType": "uint256[]",
          "name": "amounts",
          "type": "uint256[]"
        }
      ],
      "stateMutability": "nonpayable",
      "type": "function"
    }
  ],
  "bytecode": "0x608060405234801561001057600080fd5b506040516155a33803806155a38339818101604052810190610032919061011d565b816000806101000a81548173ffffffffffffffffffffffffffffffffffffffff021916908373ffffffffffffffffffffffffffffffffffffffff16021790555080600160006101000a81548173ffffffffffffffffffffffffffffffffffffffff021916908373ffffffffffffffffffffffffffffffffffffffff160217905550505061015d565b600080fd5b600073ffffffffffffffffffffffffffffffffffffffff82169050919050565b60006100ea826100bf565b9050919050565b6100fa816100df565b811461010557600080fd5b50565b600081519050610117816100f1565b92915050565b60008060408385031215610134576101336100ba565b5b600061014285828601610108565b925050602061015385828601610108565b9150509250929050565b6154378061016c6000396000f3fe608060405234801561001057600080fd5b50600436106100575760003560e01c8063054d50d41461005c57806338ed17391461008c578063ad5c4648146100bc578063c45a0155146100da578063e8e33700146100f8575b600080fd5b61007660048036038101906100719190611204565b61012a565b6040516100839190611266565b60405180910390f35b6100a660048036038101906100a19190611344565b610214565b6040516100b3919061149c565b60405180910390f35b6100c4610410565b6040516100d191906114cd565b60405180910390f35b6100e2610436565b6040516100ef91906114cd565b60405180910390f35b610112600480360381019061010d91906114e8565b61045a565b6040516101219392919061159e565b60405180910390f35b600080841161016e576040517f08c379a000000000000000000000000000000000000000000000000000000000815260040161016590611632565b60405180910390fd5b60008311801561017e5750600082115b6101bd576040517f08c379a00000000000000000000000000000000000000000000000000000000081526004016101b49061169e565b60405180910390fd5b60006103e5856101cd91906116ed565b9050600083826101dd91906116ed565b90506000826103e8876101f091906116ed565b6101fa919061172f565b905080826102089190611792565b93505050509392505050565b6060814281101561025a576040517f08c379a00000000000000000000000000000000000000000000000000000000081526004016102519061180f565b60405180910390fd5b6102a588878780806020026020016040519081016040528093929190818152602001838360200280828437600081840152601f19601f820116905080830192505050505050506109c3565b91508682600184516102b7919061182f565b815181106102c8576102c7611863565b5b60200260200101511015610311576040517f08c379a0000000000000000000000000000000000000000000000000000000008152600401610308906118de565b60405180910390fd5b6103b98686600081811061032857610327611863565b5b905060200201602081019061033d91906118fe565b336103988989600081811061035557610354611863565b5b905060200201602081019061036a91906118fe565b8a8a600181811061037e5761037d611863565b5b905060200201602081019061039391906118fe565b610b46565b856000815181106103ac576103ab611863565b5b6020026020010151610c03565b61040582878780806020026020016040519081016040528093929190818152602001838360200280828437600081840152601f19601f8201169050808301925050505050505086610d73565b509695505050505050565b600160009054906101000a900473ffffffffffffffffffffffffffffffffffffffff1681565b60008054906101000a900473ffffffffffffffffffffffffffffffffffffffff1681565b600080600083428110156104a3576040517f08c379a000000000000000000000000000000000000000000000000000000000815260040161049a9061180f565b60405180910390fd5b60008060009054906101000a900473ffffffffffffffffffffffffffffffffffffffff1673ffffffffffffffffffffffffffffffffffffffff1663e6a439058e8e6040518363ffffffff1660e01b815260040161050192919061192b565b602060405180830381865afa15801561051e573d6000803e3d6000fd5b505050506040513d601f19601f820116820180604052508101906105429190611969565b9050600073ffffffffffffffffffffffffffffffffffffffff168173ffffffffffffffffffffffffffffffffffffffff16036105b3576040517f08c379a00000000000000000000000000000000000000000000000000000000081526004016105aa906119e2565b60405180910390fd5b6105bf8d33838e610c03565b6105cb8c33838d610c03565b8073ffffffffffffffffffffffffffffffffffffffff16636a627842886040518263ffffffff1660e01b815260040161060491906114cd565b6020604051808303816000875af1158015610623573d6000803e3d6000fd5b505050506040513d601f19601f820116820180604052508101906106479190611a17565b92506000808273ffffffffffffffffffffffffffffffffffffffff16630902f1ac6040518163ffffffff1660e01b8152600401606060405180830381865afa158015610697573d6000803e3d6000fd5b505050506040513d601f19601f820116820180604052508101906106bb9190611ac6565b506dffffffffffffffffffffffffffff1691506dffffffffffffffffffffffffffff1691508d73ffffffffffffffffffffffffffffffffffffffff168f73ffffffffffffffffffffffffffffffffffffffff16101561083d578c8f73ffffffffffffffffffffffffffffffffffffffff166370a08231856040518263ffffffff1660e01b815260040161074e91906114cd565b602060405180830381865afa15801561076b573d6000803e3d6000fd5b505050506040513d601f19601f8201168201806040525081019061078f9190611a17565b610799919061182f565b826107a4919061182f565b96508b8e73ffffffffffffffffffffffffffffffffffffffff166370a08231856040518263ffffffff1660e01b81526004016107e091906114cd565b602060405180830381865afa1580156107fd573d6000803e3d6000fd5b505050506040513d601f19601f820116820180604052508101906108219190611a17565b61082b919061182f565b81610836919061182f565b9550610962565b8c8f73ffffffffffffffffffffffffffffffffffffffff166370a08231856040518263ffffffff1660e01b815260040161087791906114cd565b602060405180830381865afa158015610894573d6000803e3d6000fd5b505050506040513d601f19601f820116820180604052508101906108b89190611a17565b6108c2919061182f565b826108cd919061182f565b95508b8e73ffffffffffffffffffffffffffffffffffffffff166370a08231856040518263ffffffff1660e01b815260040161090991906114cd565b602060405180830381865afa158015610926573d6000803e3d6000fd5b505050506040513d601f19601f8201168201806040525081019061094a9190611a17565b610954919061182f565b8161095f919061182f565b96505b8a87101580156109725750898610155b6109b1576040517f08c379a00000000000000000000000000000000000000000000000000000000081526004016109a890611b65565b60405180910390fd5b50505050985098509895505050505050565b6060600282511015610a0a576040517f08c379a0000000000000000000000000000000000000000000000000000000008152600401610a0190611bd1565b60405180910390fd5b815167ffffffffffffffff811115610a2557610a24611bf1565b5b604051908082528060200260200182016040528015610a535781602001602082028036833780820191505090505b5090508281600081518110610a6b57610a6a611863565b5b60200260200101818152505060005b60018351610a88919061182f565b811015610b3f57600080610adc858481518110610aa857610aa7611863565b5b602002602001015186600186610abe919061172f565b81518110610acf57610ace611863565b5b6020026020010151610f84565b91509150610b05848481518110610af657610af5611863565b5b6020026020010151838361012a565b84600185610b13919061172f565b81518110610b2457610b23611863565b5b60200260200101818152505050508080600101915050610a7a565b5092915050565b6000806000610b55858561108b565b9150915060008054906101000a900473ffffffffffffffffffffffffffffffffffffffff168282604051602001610b8d929190611c68565b6040516020818303038152906040528051906020012060405180602001610bb3906111b7565b6020820181038252601f19601f8201166040525080519060200120604051602001610be093929190611d16565b6040516020818303038152906040528051906020012060001c9250505092915050565b6000808573ffffffffffffffffffffffffffffffffffffffff16858585604051602401610c3293929190611d5e565b6040516020818303038152906040527f23b872dd000000000000000000000000000000000000000000000000000000007bffffffffffffffffffffffffffffffffffffffffffffffffffffffff19166020820180517bffffffffffffffffffffffffffffffffffffffffffffffffffffffff8381831617835250505050604051610cbc9190611e06565b6000604051808303816000865af19150503d8060008114610cf9576040519150601f19603f3d011682016040523d82523d6000602084013e610cfe565b606091505b5091509150818015610d2c5750600081511480610d2b575080806020019051810190610d2a9190611e55565b5b5b610d6b576040517f08c379a0000000000000000000000000000000000000000000000000000000008152600401610d6290611ef4565b60405180910390fd5b505050505050565b60005b60018351610d84919061182f565b811015610f7e57600080848381518110610da157610da0611863565b5b602002602001015185600185610db7919061172f565b81518110610dc857610dc7611863565b5b6020026020010151915091506000610de0838361108b565b509050600087600186610df3919061172f565b81518110610e0457610e03611863565b5b602002602001015190506000808373ffffffffffffffffffffffffffffffffffffffff168673ffffffffffffffffffffffffffffffffffffffff1614610e4c57826000610e50565b6000835b91509150600060028a51610e64919061182f565b8810610e705788610ea1565b610ea0868b60028b610e82919061172f565b81518110610e9357610e92611863565b5b6020026020010151610b46565b5b9050610ead8787610b46565b73ffffffffffffffffffffffffffffffffffffffff1663022c0d9f848484600067ffffffffffffffff811115610ee657610ee5611bf1565b5b6040519080825280601f01601f191660200182016040528015610f185781602001600182028036833780820191505090505b506040518563ffffffff1660e01b8152600401610f389493929190611f6f565b600060405180830381600087803b158015610f5257600080fd5b505af1158015610f66573d6000803e3d6000fd5b50505050505050505050508080600101915050610d76565b50505050565b6000806000610f938585610b46565b90506000808273ffffffffffffffffffffffffffffffffffffffff16630902f1ac6040518163ffffffff1660e01b8152600401606060405180830381865afa158015610fe3573d6000803e3d6000fd5b505050506040513d601f19601f820116820180604052508101906110079190611ac6565b506dffffffffffffffffffffffffffff1691506dffffffffffffffffffffffffffff1691506000611038888861108b565b5090508073ffffffffffffffffffffffffffffffffffffffff168873ffffffffffffffffffffffffffffffffffffffff1614611075578183611078565b82825b8096508197505050505050509250929050565b6000808273ffffffffffffffffffffffffffffffffffffffff168473ffffffffffffffffffffffffffffffffffffffff16036110fc576040517f08c379a00000000000000000000000000000000000000000000000000000000081526004016110f39061202d565b60405180910390fd5b8273ffffffffffffffffffffffffffffffffffffffff168473ffffffffffffffffffffffffffffffffffffffff1610611136578284611139565b83835b8092508193505050600073ffffffffffffffffffffffffffffffffffffffff168273ffffffffffffffffffffffffffffffffffffffff16036111b0576040517f08c379a00000000000000000000000000000000000000000000000000000000081526004016111a790612099565b60405180910390fd5b9250929050565b613348806120ba83390190565b600080fd5b600080fd5b6000819050919050565b6111e1816111ce565b81146111ec57600080fd5b50565b6000813590506111fe816111d8565b92915050565b60008060006060848603121561121d5761121c6111c4565b5b600061122b868287016111ef565b935050602061123c868287016111ef565b925050604061124d868287016111ef565b9150509250925092565b611260816111ce565b82525050565b600060208201905061127b6000830184611257565b92915050565b600080fd5b600080fd5b600080fd5b60008083601f8401126112a6576112a5611281565b5b8235905067ffffffffffffffff8111156112c3576112c2611286565b5b6020830191508360208202830111156112df576112de61128b565b5b9250929050565b600073ffffffffffffffffffffffffffffffffffffffff82169050919050565b6000611311826112e6565b9050919050565b61132181611306565b811461132c57600080fd5b50565b60008135905061133e81611318565b92915050565b60008060008060008060a08789031215611361576113606111c4565b5b600061136f89828a016111ef565b965050602061138089828a016111ef565b955050604087013567ffffffffffffffff8111156113a1576113a06111c9565b5b6113ad89828a01611290565b945094505060606113c089828a0161132f565b92505060806113d189828a016111ef565b9150509295509295509295565b600081519050919050565b600082825260208201905092915050565b6000819050602082019050919050565b611413816111ce565b82525050565b6000611425838361140a565b60208301905092915050565b6000602082019050919050565b6000611449826113de565b61145381856113e9565b935061145e836113fa565b8060005b8381101561148f5781516114768882611419565b975061148183611431565b925050600181019050611462565b5085935050505092915050565b600060208201905081810360008301526114b6818461143e565b905092915050565b6114c781611306565b82525050565b60006020820190506114e260008301846114be565b92915050565b600080600080600080600080610100898b031215611509576115086111c4565b5b60006115178b828c0161132f565b98505060206115288b828c0161132f565b97505060406115398b828c016111ef565b965050606061154a8b828c016111ef565b955050608061155b8b828c016111ef565b94505060a061156c8b828c016111ef565b93505060c061157d8b828c0161132f565b92505060e061158e8b828c016111ef565b9150509295985092959890939650565b60006060820190506115b36000830186611257565b6115c06020830185611257565b6115cd6040830184611257565b949350505050565b600082825260208201905092915050565b7f494e53554646494349454e545f494e5055545f414d4f554e5400000000000000600082015250565b600061161c6019836115d5565b9150611627826115e6565b602082019050919050565b6000602082019050818103600083015261164b8161160f565b9050919050565b7f494e53554646494349454e545f4c495155494449545900000000000000000000600082015250565b60006116886016836115d5565b915061169382611652565b602082019050919050565b600060208201905081810360008301526116b78161167b565b9050919050565b7f4e487b7100000000000000000000000000000000000000000000000000000000600052601160045260246000fd5b60006116f8826111ce565b9150611703836111ce565b9250828202611711816111ce565b91508282048414831517611728576117276116be565b5b5092915050565b600061173a826111ce565b9150611745836111ce565b925082820190508082111561175d5761175c6116be565b5b92915050565b7f4e487b7100000000000000000000000000000000000000000000000000000000600052601260045260246000fd5b600061179d826111ce565b91506117a8836111ce565b9250826117b8576117b7611763565b5b828204905092915050565b7f4d696e6973776170526f757465723a2045585049524544000000000000000000600082015250565b60006117f96017836115d5565b9150611804826117c3565b602082019050919050565b60006020820190508181036000830152611828816117ec565b9050919050565b600061183a826111ce565b9150611845836111ce565b925082820390508181111561185d5761185c6116be565b5b92915050565b7f4e487b7100000000000000000000000000000000000000000000000000000000600052603260045260246000fd5b7f496e73756666696369656e74206f757470757400000000000000000000000000600082015250565b60006118c86013836115d5565b91506118d382611892565b602082019050919050565b600060208201905081810360008301526118f7816118bb565b9050919050565b600060208284031215611914576119136111c4565b5b60006119228482850161132f565b91505092915050565b600060408201905061194060008301856114be565b61194d60208301846114be565b9392505050565b60008151905061196381611318565b92915050565b60006020828403121561197f5761197e6111c4565b5b600061198d84828501611954565b91505092915050565b7f50616972206e6f74206578697374000000000000000000000000000000000000600082015250565b60006119cc600e836115d5565b91506119d782611996565b602082019050919050565b600060208201905081810360008301526119fb816119bf565b9050919050565b600081519050611a11816111d8565b92915050565b600060208284031215611a2d57611a2c6111c4565b5b6000611a3b84828501611a02565b91505092915050565b60006dffffffffffffffffffffffffffff82169050919050565b611a6781611a44565b8114611a7257600080fd5b50565b600081519050611a8481611a5e565b92915050565b600063ffffffff82169050919050565b611aa381611a8a565b8114611aae57600080fd5b50565b600081519050611ac081611a9a565b92915050565b600080600060608486031215611adf57611ade6111c4565b5b6000611aed86828701611a75565b9350506020611afe86828701611a75565b9250506040611b0f86828701611ab1565b9150509250925092565b7f496e73756666696369656e7420616d6f756e7400000000000000000000000000600082015250565b6000611b4f6013836115d5565b9150611b5a82611b19565b602082019050919050565b60006020820190508181036000830152611b7e81611b42565b9050919050565b7f4d696e6973776170526f757465723a20494e56414c49445f5041544800000000600082015250565b6000611bbb601c836115d5565b9150611bc682611b85565b602082019050919050565b60006020820190508181036000830152611bea81611bae565b9050919050565b7f4e487b7100000000000000000000000000000000000000000000000000000000600052604160045260246000fd5b60008160601b9050919050565b6000611c3882611c20565b9050919050565b6000611c4a82611c2d565b9050919050565b611c62611c5d82611306565b611c3f565b82525050565b6000611c748285611c51565b601482019150611c848284611c51565b6014820191508190509392505050565b600081905092915050565b7fff00000000000000000000000000000000000000000000000000000000000000600082015250565b6000611cd5600183611c94565b9150611ce082611c9f565b600182019050919050565b6000819050919050565b6000819050919050565b611d10611d0b82611ceb565b611cf5565b82525050565b6000611d2182611cc8565b9150611d2d8286611c51565b601482019150611d3d8285611cff565b602082019150611d4d8284611cff565b602082019150819050949350505050565b6000606082019050611d7360008301866114be565b611d8060208301856114be565b611d8d6040830184611257565b949350505050565b600081519050919050565b600081905092915050565b60005b83811015611dc9578082015181840152602081019050611dae565b60008484015250505050565b6000611de082611d95565b611dea8185611da0565b9350611dfa818560208601611dab565b80840191505092915050565b6000611e128284611dd5565b915081905092915050565b60008115159050919050565b611e3281611e1d565b8114611e3d57600080fd5b50565b600081519050611e4f81611e29565b92915050565b600060208284031215611e6b57611e6a6111c4565b5b6000611e7984828501611e40565b91505092915050565b7f5472616e7366657248656c7065723a205452414e534645525f46524f4d5f464160008201527f494c454400000000000000000000000000000000000000000000000000000000602082015250565b6000611ede6024836115d5565b9150611ee982611e82565b604082019050919050565b60006020820190508181036000830152611f0d81611ed1565b9050919050565b600082825260208201905092915050565b6000601f19601f8301169050919050565b6000611f4182611d95565b611f4b8185611f14565b9350611f5b818560208601611dab565b611f6481611f25565b840191505092915050565b6000608082019050611f846000830187611257565b611f916020830186611257565b611f9e60408301856114be565b8181036060830152611fb08184611f36565b905095945050505050565b7f4d696e6973776170526f757465723a204944454e544943414c5f41444452455360008201527f5345530000000000000000000000000000000000000000000000000000000000602082015250565b60006120176023836115d5565b915061202282611fbb565b604082019050919050565b600060208201905081810360008301526120468161200a565b9050919050565b7f4d696e6973776170526f757465723a205a45524f5f4144445245535300000000600082015250565b6000612083601c836115d5565b915061208e8261204d565b602082019050919050565b600060208201905081810360008301526120b281612076565b905091905056fe608060405234801561001057600080fd5b506040518060400160405280600b81526020017f4d696e6973776170204c500000000000000000000000000000000000000000008152506040518060400160405280600381526020017f4d4c500000000000000000000000000000000000000000000000000000000000815250816003908161008c91906102f4565b50806004908161009c91906102f4565b5050506103c6565b600081519050919050565b7f4e487b7100000000000000000000000000000000000000000000000000000000600052604160045260246000fd5b7f4e487b7100000000000000000000000000000000000000000000000000000000600052602260045260246000fd5b6000600282049050600182168061012557607f821691505b602082108103610138576101376100de565b5b50919050565b60008190508160005260206000209050919050565b60006020601f8301049050919050565b600082821b905092915050565b6000600883026101a07fffffffffffffffffffffffffffffffffffffffffffffffffffffffffffffffff82610163565b6101aa8683610163565b95508019841693508086168417925050509392505050565b6000819050919050565b6000819050919050565b60006101f16101ec6101e7846101c2565b6101cc565b6101c2565b9050919050565b6000819050919050565b61020b836101d6565b61021f610217826101f8565b848454610170565b825550505050565b600090565b610234610227565b61023f818484610202565b505050565b5b818110156102635761025860008261022c565b600181019050610245565b5050565b601f8211156102a8576102798161013e565b61028284610153565b81016020851015610291578190505b6102a561029d85610153565b830182610244565b50505b505050565b600082821c905092915050565b60006102cb600019846008026102ad565b1980831691505092915050565b60006102e483836102ba565b9150826002028217905092915050565b6102fd826100a4565b67ffffffffffffffff811115610316576103156100af565b5b610320825461010d565b61032b828285610267565b600060209050601f83116001811461035e576000841561034c578287015190505b61035685826102d8565b8655506103be565b601f19841661036c8661013e565b60005b828110156103945784890151825560018201915060208501945060208101905061036f565b868310156103b157848901516103ad601f8916826102ba565b8355505b6001600288020188555050505b505050505050565b612f73806103d56000396000f3fe608060405234801561001057600080fd5b50600436106101215760003560e01c80635909c0d5116100ad57806389afcb441161007157806389afcb441461031057806395d89b4114610341578063a9059cbb1461035f578063d21220a71461038f578063dd62ed3e146103ad57610121565b80635909c0d5146102565780635a3d5493146102745780636a6278421461029257806370a08231146102c25780637464fc3d146102f257610121565b80630dfe1681116100f45780630dfe1681146101b057806318160ddd146101ce57806323b872dd146101ec578063313ce5671461021c578063485cc9551461023a57610121565b8063022c0d9f1461012657806306fdde03146101425780630902f1ac14610160578063095ea7b314610180575b600080fd5b610140600480360381019061013b9190612263565b6103dd565b005b61014a61099b565b604051610157919061237b565b60405180910390f35b610168610a2d565b604051610177939291906123e5565b60405180910390f35b61019a6004803603810190610195919061241c565b610a8a565b6040516101a79190612477565b60405180910390f35b6101b8610aad565b6040516101c591906124a1565b60405180910390f35b6101d6610ad3565b6040516101e391906124cb565b60405180910390f35b610206600480360381019061020191906124e6565b610add565b6040516102139190612477565b60405180910390f35b610224610b0c565b6040516102319190612555565b60405180910390f35b610254600480360381019061024f9190612570565b610b15565b005b61025e610c86565b60405161026b91906124cb565b60405180910390f35b61027c610c8c565b60405161028991906124cb565b60405180910390f35b6102ac60048036038101906102a791906125b0565b610c92565b6040516102b991906124cb565b60405180910390f35b6102dc60048036038101906102d791906125b0565b610fef565b6040516102e991906124cb565b60405180910390f35b6102fa611037565b60405161030791906124cb565b60405180910390f35b61032a600480360381019061032591906125b0565b61103d565b6040516103389291906125dd565b60405180910390f35b610349611466565b604051610356919061237b565b60405180910390f35b6103796004803603810190610374919061241c565b6114f8565b6040516103869190612477565b60405180910390f35b61039761151b565b6040516103a491906124a1565b60405180910390f35b6103c760048036038101906103c29190612570565b611541565b6040516103d491906124cb565b60405180910390f35b60008511806103ec5750600084115b61042b576040517f08c379a000000000000000000000000000000000000000000000000000000000815260040161042290612652565b60405180910390fd5b600080610436610a2d565b5091509150816dffffffffffffffffffffffffffff16871080156104695750806dffffffffffffffffffffffffffff1686105b6104a8576040517f08c379a000000000000000000000000000000000000000000000000000000000815260040161049f906126be565b60405180910390fd5b6000806000600560009054906101000a900473ffffffffffffffffffffffffffffffffffffffff1690506000600660009054906101000a900473ffffffffffffffffffffffffffffffffffffffff1690508173ffffffffffffffffffffffffffffffffffffffff168973ffffffffffffffffffffffffffffffffffffffff161415801561056157508073ffffffffffffffffffffffffffffffffffffffff168973ffffffffffffffffffffffffffffffffffffffff1614155b6105a0576040517f08c379a00000000000000000000000000000000000000000000000000000000081526004016105979061272a565b60405180910390fd5b60008b11156105b5576105b4828a8d6115c8565b5b60008a11156105ca576105c9818a8c6115c8565b5b600088889050111561064a578873ffffffffffffffffffffffffffffffffffffffff166310d1e85c338d8d8c8c6040518663ffffffff1660e01b8152600401610617959493929190612797565b600060405180830381600087803b15801561063157600080fd5b505af1158015610645573d6000803e3d6000fd5b505050505b8173ffffffffffffffffffffffffffffffffffffffff166370a08231306040518263ffffffff1660e01b815260040161068391906124a1565b602060405180830381865afa1580156106a0573d6000803e3d6000fd5b505050506040513d601f19601f820116820180604052508101906106c491906127fa565b93508073ffffffffffffffffffffffffffffffffffffffff166370a08231306040518263ffffffff1660e01b81526004016106ff91906124a1565b602060405180830381865afa15801561071c573d6000803e3d6000fd5b505050506040513d601f19601f8201168201806040525081019061074091906127fa565b92505050600089856dffffffffffffffffffffffffffff166107629190612856565b831161076f576000610797565b89856dffffffffffffffffffffffffffff1661078b9190612856565b836107969190612856565b5b9050600089856dffffffffffffffffffffffffffff166107b79190612856565b83116107c45760006107ec565b89856dffffffffffffffffffffffffffff166107e09190612856565b836107eb9190612856565b5b905060008211806107fd5750600081115b61083c576040517f08c379a0000000000000000000000000000000000000000000000000000000008152600401610833906128d6565b60405180910390fd5b600060038361084b91906128f6565b6103e88661085991906128f6565b6108639190612856565b9050600060038361087491906128f6565b6103e88661088291906128f6565b61088c9190612856565b9050620f4240876dffffffffffffffffffffffffffff16896dffffffffffffffffffffffffffff166108be91906128f6565b6108c891906128f6565b81836108d491906128f6565b1015610915576040517f08c379a000000000000000000000000000000000000000000000000000000000815260040161090c90612984565b60405180910390fd5b50506109238484888861171d565b8873ffffffffffffffffffffffffffffffffffffffff163373ffffffffffffffffffffffffffffffffffffffff167fd78ad95fa46c994b6551d0da85fc275fe613ce37657fb8d5e3d130840159d82284848f8f60405161098694939291906129a4565b60405180910390a35050505050505050505050565b6060600380546109aa90612a18565b80601f01602080910402602001604051908101604052809291908181526020018280546109d690612a18565b8015610a235780601f106109f857610100808354040283529160200191610a23565b820191906000526020600020905b815481529060010190602001808311610a0657829003601f168201915b5050505050905090565b6000806000600760009054906101000a90046dffffffffffffffffffffffffffff1692506007600e9054906101000a90046dffffffffffffffffffffffffffff1691506007601c9054906101000a900463ffffffff169050909192565b600080610a956119cf565b9050610aa28185856119d7565b600191505092915050565b600560009054906101000a900473ffffffffffffffffffffffffffffffffffffffff1681565b6000600254905090565b600080610ae86119cf565b9050610af58582856119e9565b610b00858585611a7e565b60019150509392505050565b60006012905090565b600073ffffffffffffffffffffffffffffffffffffffff16600560009054906101000a900473ffffffffffffffffffffffffffffffffffffffff1673ffffffffffffffffffffffffffffffffffffffff16148015610bc15750600073ffffffffffffffffffffffffffffffffffffffff16600660009054906101000a900473ffffffffffffffffffffffffffffffffffffffff1673ffffffffffffffffffffffffffffffffffffffff16145b610c00576040517f08c379a0000000000000000000000000000000000000000000000000000000008152600401610bf790612a95565b60405180910390fd5b81600560006101000a81548173ffffffffffffffffffffffffffffffffffffffff021916908373ffffffffffffffffffffffffffffffffffffffff16021790555080600660006101000a81548173ffffffffffffffffffffffffffffffffffffffff021916908373ffffffffffffffffffffffffffffffffffffffff1602179055505050565b60085481565b60095481565b6000806000610c9f610a2d565b50915091506000600560009054906101000a900473ffffffffffffffffffffffffffffffffffffffff1673ffffffffffffffffffffffffffffffffffffffff166370a08231306040518263ffffffff1660e01b8152600401610d0191906124a1565b602060405180830381865afa158015610d1e573d6000803e3d6000fd5b505050506040513d601f19601f82011682018060405250810190610d4291906127fa565b90506000600660009054906101000a900473ffffffffffffffffffffffffffffffffffffffff1673ffffffffffffffffffffffffffffffffffffffff166370a08231306040518263ffffffff1660e01b8152600401610da191906124a1565b602060405180830381865afa158015610dbe573d6000803e3d6000fd5b505050506040513d601f19601f82011682018060405250810190610de291906127fa565b90506000846dffffffffffffffffffffffffffff1683610e029190612856565b90506000846dffffffffffffffffffffffffffff1683610e229190612856565b90506000610e2e610ad3565b905060008103610e6d576103e8610e4f8385610e4a91906128f6565b611b72565b610e599190612856565b9750610e6860006103e8611bec565b610ec6565b610ec3876dffffffffffffffffffffffffffff168285610e8d91906128f6565b610e979190612ae4565b876dffffffffffffffffffffffffffff168385610eb491906128f6565b610ebe9190612ae4565b611c6e565b97505b60008811610f09576040517f08c379a0000000000000000000000000000000000000000000000000000000008152600401610f0090612b61565b60405180910390fd5b610f138989611bec565b610f1f8585898961171d565b6000811115610f93576007600e9054906101000a90046dffffffffffffffffffffffffffff166dffffffffffffffffffffffffffff16600760009054906101000a90046dffffffffffffffffffffffffffff166dffffffffffffffffffffffffffff16610f8c91906128f6565b600a819055505b3373ffffffffffffffffffffffffffffffffffffffff167f4c209b5fc8ad50758f13e2e1088ba56a560dff690a1c6fef26394f4c03821c4f8484604051610fdb9291906125dd565b60405180910390a250505050505050919050565b60008060008373ffffffffffffffffffffffffffffffffffffffff1673ffffffffffffffffffffffffffffffffffffffff168152602001908152602001600020549050919050565b600a5481565b6000806000600560009054906101000a900473ffffffffffffffffffffffffffffffffffffffff1690506000600660009054906101000a900473ffffffffffffffffffffffffffffffffffffffff16905060008273ffffffffffffffffffffffffffffffffffffffff166370a08231306040518263ffffffff1660e01b81526004016110c991906124a1565b602060405180830381865afa1580156110e6573d6000803e3d6000fd5b505050506040513d601f19601f8201168201806040525081019061110a91906127fa565b905060008273ffffffffffffffffffffffffffffffffffffffff166370a08231306040518263ffffffff1660e01b815260040161114791906124a1565b602060405180830381865afa158015611164573d6000803e3d6000fd5b505050506040513d601f19601f8201168201806040525081019061118891906127fa565b9050600061119530610fef565b905060006111a1610ad3565b90508084836111b091906128f6565b6111ba9190612ae4565b97508083836111c991906128f6565b6111d39190612ae4565b96506000881180156111e55750600087115b611224576040517f08c379a000000000000000000000000000000000000000000000000000000000815260040161121b90612bcd565b60405180910390fd5b61122e3083611c88565b611239868a8a6115c8565b611244858a896115c8565b8573ffffffffffffffffffffffffffffffffffffffff166370a08231306040518263ffffffff1660e01b815260040161127d91906124a1565b602060405180830381865afa15801561129a573d6000803e3d6000fd5b505050506040513d601f19601f820116820180604052508101906112be91906127fa565b93508473ffffffffffffffffffffffffffffffffffffffff166370a08231306040518263ffffffff1660e01b81526004016112f991906124a1565b602060405180830381865afa158015611316573d6000803e3d6000fd5b505050506040513d601f19601f8201168201806040525081019061133a91906127fa565b92506113808484600760009054906101000a90046dffffffffffffffffffffffffffff166007600e9054906101000a90046dffffffffffffffffffffffffffff1661171d565b60008111156113f4576007600e9054906101000a90046dffffffffffffffffffffffffffff166dffffffffffffffffffffffffffff16600760009054906101000a90046dffffffffffffffffffffffffffff166dffffffffffffffffffffffffffff166113ed91906128f6565b600a819055505b8873ffffffffffffffffffffffffffffffffffffffff163373ffffffffffffffffffffffffffffffffffffffff167fdccd412f0b1252819cb1fd330b93224ca42612892bb3f4f789976e6d819364968a8a6040516114539291906125dd565b60405180910390a3505050505050915091565b60606004805461147590612a18565b80601f01602080910402602001604051908101604052809291908181526020018280546114a190612a18565b80156114ee5780601f106114c3576101008083540402835291602001916114ee565b820191906000526020600020905b8154815290600101906020018083116114d157829003601f168201915b5050505050905090565b6000806115036119cf565b9050611510818585611a7e565b600191505092915050565b600660009054906101000a900473ffffffffffffffffffffffffffffffffffffffff1681565b6000600160008473ffffffffffffffffffffffffffffffffffffffff1673ffffffffffffffffffffffffffffffffffffffff16815260200190815260200160002060008373ffffffffffffffffffffffffffffffffffffffff1673ffffffffffffffffffffffffffffffffffffffff16815260200190815260200160002054905092915050565b6000808473ffffffffffffffffffffffffffffffffffffffff1663a9059cbb60e01b85856040516024016115fd929190612bed565b604051602081830303815290604052907bffffffffffffffffffffffffffffffffffffffffffffffffffffffff19166020820180517bffffffffffffffffffffffffffffffffffffffffffffffffffffffff83818316178352505050506040516116679190612c5d565b6000604051808303816000865af19150503d80600081146116a4576040519150601f19603f3d011682016040523d82523d6000602084013e6116a9565b606091505b50915091508180156116d757506000815114806116d65750808060200190518101906116d59190612ca0565b5b5b611716576040517f08c379a000000000000000000000000000000000000000000000000000000000815260040161170d90612d19565b60405180910390fd5b5050505050565b6dffffffffffffffffffffffffffff8016841115801561174d57506dffffffffffffffffffffffffffff80168311155b61178c576040517f08c379a000000000000000000000000000000000000000000000000000000000815260040161178390612d85565b60405180910390fd5b60006401000000004261179f9190612da5565b905060006007601c9054906101000a900463ffffffff16826117c19190612dd6565b905060008163ffffffff161180156117ea57506000846dffffffffffffffffffffffffffff1614155b801561180757506000836dffffffffffffffffffffffffffff1614155b156118cb57600061181784611d0a565b9050600061182486611d0a565b90508263ffffffff166118378388611d3e565b7bffffffffffffffffffffffffffffffffffffffffffffffffffffffff1661185f91906128f6565b600860008282546118709190612e0e565b925050819055508263ffffffff166118888287611d3e565b7bffffffffffffffffffffffffffffffffffffffffffffffffffffffff166118b091906128f6565b600960008282546118c19190612e0e565b9250508190555050505b85600760006101000a8154816dffffffffffffffffffffffffffff02191690836dffffffffffffffffffffffffffff160217905550846007600e6101000a8154816dffffffffffffffffffffffffffff02191690836dffffffffffffffffffffffffffff160217905550816007601c6101000a81548163ffffffff021916908363ffffffff1602179055507f1c411e9a96e071241c2f21f7726b17ae89e3cab4c78be50e062b03a9fffbbad1600760009054906101000a90046dffffffffffffffffffffffffffff166007600e9054906101000a90046dffffffffffffffffffffffffffff166040516119bf929190612e42565b60405180910390a1505050505050565b600033905090565b6119e48383836001611d64565b505050565b60006119f58484611541565b90507fffffffffffffffffffffffffffffffffffffffffffffffffffffffffffffffff811015611a785781811015611a68578281836040517ffb8f41b2000000000000000000000000000000000000000000000000000000008152600401611a5f93929190612e6b565b60405180910390fd5b611a7784848484036000611d64565b5b50505050565b600073ffffffffffffffffffffffffffffffffffffffff168373ffffffffffffffffffffffffffffffffffffffff1603611af05760006040517f96c6fd1e000000000000000000000000000000000000000000000000000000008152600401611ae791906124a1565b60405180910390fd5b600073ffffffffffffffffffffffffffffffffffffffff168273ffffffffffffffffffffffffffffffffffffffff1603611b625760006040517fec442f05000000000000000000000000000000000000000000000000000000008152600401611b5991906124a1565b60405180910390fd5b611b6d838383611f3b565b505050565b60006003821115611bd95781905060006001600284611b919190612ae4565b611b9b9190612e0e565b90505b81811015611bd3578091506002818285611bb89190612ae4565b611bc29190612e0e565b611bcc9190612ae4565b9050611b9e565b50611be7565b60008214611be657600190505b5b919050565b600073ffffffffffffffffffffffffffffffffffffffff168273ffffffffffffffffffffffffffffffffffffffff1603611c5e5760006040517fec442f05000000000000000000000000000000000000000000000000000000008152600401611c5591906124a1565b60405180910390fd5b611c6a60008383611f3b565b5050565b600081831115611c7e5781611c80565b825b905092915050565b600073ffffffffffffffffffffffffffffffffffffffff168273ffffffffffffffffffffffffffffffffffffffff1603611cfa5760006040517f96c6fd1e000000000000000000000000000000000000000000000000000000008152600401611cf191906124a1565b60405180910390fd5b611d0682600083611f3b565b5050565b60006e010000000000000000000000000000826dffffffffffffffffffffffffffff16611d379190612eca565b9050919050565b6000816dffffffffffffffffffffffffffff1683611d5c9190612f0c565b905092915050565b600073ffffffffffffffffffffffffffffffffffffffff168473ffffffffffffffffffffffffffffffffffffffff1603611dd65760006040517fe602df05000000000000000000000000000000000000000000000000000000008152600401611dcd91906124a1565b60405180910390fd5b600073ffffffffffffffffffffffffffffffffffffffff168373ffffffffffffffffffffffffffffffffffffffff1603611e485760006040517f94280d62000000000000000000000000000000000000000000000000000000008152600401611e3f91906124a1565b60405180910390fd5b81600160008673ffffffffffffffffffffffffffffffffffffffff1673ffffffffffffffffffffffffffffffffffffffff16815260200190815260200160002060008573ffffffffffffffffffffffffffffffffffffffff1673ffffffffffffffffffffffffffffffffffffffff168152602001908152602001600020819055508015611f35578273ffffffffffffffffffffffffffffffffffffffff168473ffffffffffffffffffffffffffffffffffffffff167f8c5be1e5ebec7d5bd14f71427d1e84f3dd0314c0f7b2291e5b200ac8c7c3b92584604051611f2c91906124cb565b60405180910390a35b50505050565b600073ffffffffffffffffffffffffffffffffffffffff168373ffffffffffffffffffffffffffffffffffffffff1603611f8d578060026000828254611f819190612e0e565b92505081905550612060565b60008060008573ffffffffffffffffffffffffffffffffffffffff1673ffffffffffffffffffffffffffffffffffffffff16815260200190815260200160002054905081811015612019578381836040517fe450d38c00000000000000000000000000000000000000000000000000000000815260040161201093929190612e6b565b60405180910390fd5b8181036000808673ffffffffffffffffffffffffffffffffffffffff1673ffffffffffffffffffffffffffffffffffffffff16815260200190815260200160002081905550505b600073ffffffffffffffffffffffffffffffffffffffff168273ffffffffffffffffffffffffffffffffffffffff16036120a957806002600082825403925050819055506120f6565b806000808473ffffffffffffffffffffffffffffffffffffffff1673ffffffffffffffffffffffffffffffffffffffff168152602001908152602001600020600082825401925050819055505b8173ffffffffffffffffffffffffffffffffffffffff168373ffffffffffffffffffffffffffffffffffffffff167fddf252ad1be2c89b69c2b068fc378daa952ba7f163c4a11628f55a4df523b3ef8360405161215391906124cb565b60405180910390a3505050565b600080fd5b600080fd5b6000819050919050565b61217d8161216a565b811461218857600080fd5b50565b60008135905061219a81612174565b92915050565b600073ffffffffffffffffffffffffffffffffffffffff82169050919050565b60006121cb826121a0565b9050919050565b6121db816121c0565b81146121e657600080fd5b50565b6000813590506121f8816121d2565b92915050565b600080fd5b600080fd5b600080fd5b60008083601f840112612223576122226121fe565b5b8235905067ffffffffffffffff8111156122405761223f612203565b5b60208301915083600182028301111561225c5761225b612208565b5b9250929050565b60008060008060006080868803121561227f5761227e612160565b5b600061228d8882890161218b565b955050602061229e8882890161218b565b94505060406122af888289016121e9565b935050606086013567ffffffffffffffff8111156122d0576122cf612165565b5b6122dc8882890161220d565b92509250509295509295909350565b600081519050919050565b600082825260208201905092915050565b60005b8381101561232557808201518184015260208101905061230a565b60008484015250505050565b6000601f19601f8301169050919050565b600061234d826122eb565b61235781856122f6565b9350612367818560208601612307565b61237081612331565b840191505092915050565b600060208201905081810360008301526123958184612342565b905092915050565b60006dffffffffffffffffffffffffffff82169050919050565b6123c08161239d565b82525050565b600063ffffffff82169050919050565b6123df816123c6565b82525050565b60006060820190506123fa60008301866123b7565b61240760208301856123b7565b61241460408301846123d6565b949350505050565b6000806040838503121561243357612432612160565b5b6000612441858286016121e9565b92505060206124528582860161218b565b9150509250929050565b60008115159050919050565b6124718161245c565b82525050565b600060208201905061248c6000830184612468565b92915050565b61249b816121c0565b82525050565b60006020820190506124b66000830184612492565b92915050565b6124c58161216a565b82525050565b60006020820190506124e060008301846124bc565b92915050565b6000806000606084860312156124ff576124fe612160565b5b600061250d868287016121e9565b935050602061251e868287016121e9565b925050604061252f8682870161218b565b9150509250925092565b600060ff82169050919050565b61254f81612539565b82525050565b600060208201905061256a6000830184612546565b92915050565b6000806040838503121561258757612586612160565b5b6000612595858286016121e9565b92505060206125a6858286016121e9565b9150509250929050565b6000602082840312156125c6576125c5612160565b5b60006125d4848285016121e9565b91505092915050565b60006040820190506125f260008301856124bc565b6125ff60208301846124bc565b9392505050565b7f494e53554646494349454e545f4f55545055545f414d4f554e54000000000000600082015250565b600061263c601a836122f6565b915061264782612606565b602082019050919050565b6000602082019050818103600083015261266b8161262f565b9050919050565b7f494e53554646494349454e545f4c495155494449545900000000000000000000600082015250565b60006126a86016836122f6565b91506126b382612672565b602082019050919050565b600060208201905081810360008301526126d78161269b565b9050919050565b7f494e56414c49445f544f00000000000000000000000000000000000000000000600082015250565b6000612714600a836122f6565b915061271f826126de565b602082019050919050565b6000602082019050818103600083015261274381612707565b9050919050565b600082825260208201905092915050565b82818337600083830152505050565b6000612776838561274a565b935061278383858461275b565b61278c83612331565b840190509392505050565b60006080820190506127ac6000830188612492565b6127b960208301876124bc565b6127c660408301866124bc565b81810360608301526127d981848661276a565b90509695505050505050565b6000815190506127f481612174565b92915050565b6000602082840312156128105761280f612160565b5b600061281e848285016127e5565b91505092915050565b7f4e487b7100000000000000000000000000000000000000000000000000000000600052601160045260246000fd5b60006128618261216a565b915061286c8361216a565b925082820390508181111561288457612883612827565b5b92915050565b7f494e53554646494349454e545f494e5055545f414d4f554e5400000000000000600082015250565b60006128c06019836122f6565b91506128cb8261288a565b602082019050919050565b600060208201905081810360008301526128ef816128b3565b9050919050565b60006129018261216a565b915061290c8361216a565b925082820261291a8161216a565b9150828204841483151761293157612930612827565b5b5092915050565b7f4b00000000000000000000000000000000000000000000000000000000000000600082015250565b600061296e6001836122f6565b915061297982612938565b602082019050919050565b6000602082019050818103600083015261299d81612961565b9050919050565b60006080820190506129b960008301876124bc565b6129c660208301866124bc565b6129d360408301856124bc565b6129e060608301846124bc565b95945050505050565b7f4e487b7100000000000000000000000000000000000000000000000000000000600052602260045260246000fd5b60006002820490506001821680612a3057607f821691505b602082108103612a4357612a426129e9565b5b50919050565b7f416c726561647920696e697469616c697a656400000000000000000000000000600082015250565b6000612a7f6013836122f6565b9150612a8a82612a49565b602082019050919050565b60006020820190508181036000830152612aae81612a72565b9050919050565b7f4e487b7100000000000000000000000000000000000000000000000000000000600052601260045260246000fd5b6000612aef8261216a565b9150612afa8361216a565b925082612b0a57612b09612ab5565b5b828204905092915050565b7f494e53554646494349454e545f4c49515549444954595f4d494e544544000000600082015250565b6000612b4b601d836122f6565b9150612b5682612b15565b602082019050919050565b60006020820190508181036000830152612b7a81612b3e565b9050919050565b7f494e53554646494349454e545f4c49515549444954595f4255524e4544000000600082015250565b6000612bb7601d836122f6565b9150612bc282612b81565b602082019050919050565b60006020820190508181036000830152612be681612baa565b9050919050565b6000604082019050612c026000830185612492565b612c0f60208301846124bc565b9392505050565b600081519050919050565b600081905092915050565b6000612c3782612c16565b612c418185612c21565b9350612c51818560208601612307565b80840191505092915050565b6000612c698284612c2c565b915081905092915050565b612c7d8161245c565b8114612c8857600080fd5b50565b600081519050612c9a81612c74565b92915050565b600060208284031215612cb657612cb5612160565b5b6000612cc484828501612c8b565b91505092915050565b7f5452414e534645525f4641494c45440000000000000000000000000000000000600082015250565b6000612d03600f836122f6565b9150612d0e82612ccd565b602082019050919050565b60006020820190508181036000830152612d3281612cf6565b9050919050565b7f4f564552464c4f57000000000000000000000000000000000000000000000000600082015250565b6000612d6f6008836122f6565b9150612d7a82612d39565b602082019050919050565b60006020820190508181036000830152612d9e81612d62565b9050919050565b6000612db08261216a565b9150612dbb8361216a565b925082612dcb57612dca612ab5565b5b828206905092915050565b6000612de1826123c6565b9150612dec836123c6565b9250828203905063ffffffff811115612e0857612e07612827565b5b92915050565b6000612e198261216a565b9150612e248361216a565b9250828201905080821115612e3c57612e3b612827565b5b92915050565b6000604082019050612e5760008301856123b7565b612e6460208301846123b7565b9392505050565b6000606082019050612e806000830186612492565b612e8d60208301856124bc565b612e9a60408301846124bc565b949350505050565b60007bffffffffffffffffffffffffffffffffffffffffffffffffffffffff82169050919050565b6000612ed582612ea2565b9150612ee083612ea2565b9250828202612eee81612ea2565b91508282048414831517612f0557612f04612827565b5b5092915050565b6000612f1782612ea2565b9150612f2283612ea2565b925082612f3257612f31612ab5565b5b82820490509291505056fea26469706673582212209034761a81e9219a76925917b0d427a18f98a505b9813ec4eeeb859365e0c5d964736f6c634300081c0033a26469706673582212208e8ab4b2d0920470b38c57b99baf4cb80b0a4a39be0a52e9156e3453411cac7a64736f6c634300081c0033",
  "linkReferences": {},
  "deployedLinkReferences": {}
}