{
  "_format": "hh-sol-artifact-1",
  "contractName": "MiniswapFactory",
  "sourceName": "contracts/core/MiniswapFactory.sol",
  "abi": [
    {
      "anonymous": false,
      "inputs": [
        {
          "indexed": true,
          "internalType": "address",
          "name": "token0",
          "type": "address"
        },
        {
          "indexed": true,
          "internalType": "address",
          "name": "token1",
          "type": "address"
        },
        {
          "indexed": false,
          "internalType": "address",
          "name": "pair",
          "type": "address"
        },
        {
          "indexed": false,
          "internalType": "uint256",
          "name": "",
          "type": "uint256"
        }
      ],
      "name": "PairCreated",
      "type": "event"
    },
    {
      "inputs": [
        {
          "internalType": "uint256",
          "name": "",
          "type": "uint256"
        }
      ],
      "name": "allPairs",
      "outputs": [
        {
          "internalType": "address",
          "name": "",
          "type": "address"
        }
      ],
      "stateMutability": "view",
      "type": "function"
    },
    {
      "inputs": [],
      "name": "allPairsLength",
      "outputs": [
        {
          "internalType": "uint256",
          "name": "",
          "type": "uint256"
        }
      ],
      "stateMutability": "view",
      "type": "function"
    },
    {
      "inputs": [
        {
          "internalType": "address",
          "name": "tokenA",
          "type": "address"
        },
        {
          "internalType": "address",
          "name": "tokenB",
          "type": "address"
        }
      ],
      "name": "createPair",
      "outputs": [
        {
          "internalType": "address",
          "name": "pair",
          "type": "address"
        }
      ],
      "stateMutability": "nonpayable",
      "type": "function"
    },
    {
      "inputs": [
        {
          "internalType": "address",
          "name": "",
          "type": "address"
        },
        {
          "internalType": "address",
          "name": "",
          "type": "address"
        }
      ],
      "name": "getPair",
      "outputs": [
        {
          "internalType": "address",
          "name": "",
          "type": "address"
        }
      ],
      "stateMutability": "view",
      "type": "function"
    }
  ],
  "bytecode": "0x6080604052348015600f57600080fd5b50613dfb8061001f6000396000f3fe608060405234801561001057600080fd5b506004361061004c5760003560e01c80631e3dd18b14610051578063574f2ba314610081578063c9c653961461009f578063e6a43905146100cf575b600080fd5b61006b6004803603810190610066919061071d565b6100ff565b604051610078919061078b565b60405180910390f35b61008961013e565b60405161009691906107b5565b60405180910390f35b6100b960048036038101906100b491906107fc565b61014b565b6040516100c6919061078b565b60405180910390f35b6100e960048036038101906100e491906107fc565b610693565b6040516100f6919061078b565b60405180910390f35b6001818154811061010f57600080fd5b906000526020600020016000915054906101000a900473ffffffffffffffffffffffffffffffffffffffff1681565b6000600180549050905090565b60008173ffffffffffffffffffffffffffffffffffffffff168373ffffffffffffffffffffffffffffffffffffffff16036101bb576040517f08c379a00000000000000000000000000000000000000000000000000000000081526004016101b2906108bf565b60405180910390fd5b6000808373ffffffffffffffffffffffffffffffffffffffff168573ffffffffffffffffffffffffffffffffffffffff16106101f85783856101fb565b84845b91509150600073ffffffffffffffffffffffffffffffffffffffff168273ffffffffffffffffffffffffffffffffffffffff160361026e576040517f08c379a00000000000000000000000000000000000000000000000000000000081526004016102659061092b565b60405180910390fd5b600073ffffffffffffffffffffffffffffffffffffffff166000808473ffffffffffffffffffffffffffffffffffffffff1673ffffffffffffffffffffffffffffffffffffffff16815260200190815260200160002060008373ffffffffffffffffffffffffffffffffffffffff1673ffffffffffffffffffffffffffffffffffffffff16815260200190815260200160002060009054906101000a900473ffffffffffffffffffffffffffffffffffffffff1673ffffffffffffffffffffffffffffffffffffffff1614610378576040517f08c379a000000000000000000000000000000000000000000000000000000000815260040161036f90610997565b60405180910390fd5b60006040518060200161038a906106d5565b6020820181038252601f19601f820116604052509050600083836040516020016103b59291906109ff565b604051602081830303815290604052805190602001209050808251602084016000f594508473ffffffffffffffffffffffffffffffffffffffff1663485cc95585856040518363ffffffff1660e01b8152600401610414929190610a2b565b600060405180830381600087803b15801561042e57600080fd5b505af1158015610442573d6000803e3d6000fd5b50505050846000808673ffffffffffffffffffffffffffffffffffffffff1673ffffffffffffffffffffffffffffffffffffffff16815260200190815260200160002060008573ffffffffffffffffffffffffffffffffffffffff1673ffffffffffffffffffffffffffffffffffffffff16815260200190815260200160002060006101000a81548173ffffffffffffffffffffffffffffffffffffffff021916908373ffffffffffffffffffffffffffffffffffffffff160217905550846000808573ffffffffffffffffffffffffffffffffffffffff1673ffffffffffffffffffffffffffffffffffffffff16815260200190815260200160002060008673ffffffffffffffffffffffffffffffffffffffff1673ffffffffffffffffffffffffffffffffffffffff16815260200190815260200160002060006101000a81548173ffffffffffffffffffffffffffffffffffffffff021916908373ffffffffffffffffffffffffffffffffffffffff1602179055506001859080600181540180825580915050600190039060005260206000200160009091909190916101000a81548173ffffffffffffffffffffffffffffffffffffffff021916908373ffffffffffffffffffffffffffffffffffffffff1602179055508273ffffffffffffffffffffffffffffffffffffffff168473ffffffffffffffffffffffffffffffffffffffff167f0d3648bd0f6ba80134a33ba9275ac585d9d315f0ad8355cddefde31afa28d0e987600180549050604051610681929190610a54565b60405180910390a35050505092915050565b60006020528160005260406000206020528060005260406000206000915091509054906101000a900473ffffffffffffffffffffffffffffffffffffffff1681565b61334880610a7e83390190565b600080fd5b6000819050919050565b6106fa816106e7565b811461070557600080fd5b50565b600081359050610717816106f1565b92915050565b600060208284031215610733576107326106e2565b5b600061074184828501610708565b91505092915050565b600073ffffffffffffffffffffffffffffffffffffffff82169050919050565b60006107758261074a565b9050919050565b6107858161076a565b82525050565b60006020820190506107a0600083018461077c565b92915050565b6107af816106e7565b82525050565b60006020820190506107ca60008301846107a6565b92915050565b6107d98161076a565b81146107e457600080fd5b50565b6000813590506107f6816107d0565b92915050565b60008060408385031215610813576108126106e2565b5b6000610821858286016107e7565b9250506020610832858286016107e7565b9150509250929050565b600082825260208201905092915050565b7f4d696e6973776170466163746f72793a204944454e544943414c5f414444524560008201527f5353455300000000000000000000000000000000000000000000000000000000602082015250565b60006108a960248361083c565b91506108b48261084d565b604082019050919050565b600060208201905081810360008301526108d88161089c565b9050919050565b7f4d696e6973776170466163746f72793a205a45524f5f41444452455353000000600082015250565b6000610915601d8361083c565b9150610920826108df565b602082019050919050565b6000602082019050818103600083015261094481610908565b9050919050565b7f4d696e6973776170466163746f72793a20504149525f45584953545300000000600082015250565b6000610981601c8361083c565b915061098c8261094b565b602082019050919050565b600060208201905081810360008301526109b081610974565b9050919050565b60008160601b9050919050565b60006109cf826109b7565b9050919050565b60006109e1826109c4565b9050919050565b6109f96109f48261076a565b6109d6565b82525050565b6000610a0b82856109e8565b601482019150610a1b82846109e8565b6014820191508190509392505050565b6000604082019050610a40600083018561077c565b610a4d602083018461077c565b9392505050565b6000604082019050610a69600083018561077c565b610a7660208301846107a6565b939250505056fe608060405234801561001057600080fd5b506040518060400160405280600b81526020017f4d696e6973776170204c500000000000000000000000000000000000000000008152506040518060400160405280600381526020017f4d4c500000000000000000000000000000000000000000000000000000000000815250816003908161008c91906102f4565b50806004908161009c91906102f4565b5050506103c6565b600081519050919050565b7f4e487b7100000000000000000000000000000000000000000000000000000000600052604160045260246000fd5b7f4e487b7100000000000000000000000000000000000000000000000000000000600052602260045260246000fd5b6000600282049050600182168061012557607f821691505b602082108103610138576101376100de565b5b50919050565b60008190508160005260206000209050919050565b60006020601f8301049050919050565b600082821b905092915050565b6000600883026101a07fffffffffffffffffffffffffffffffffffffffffffffffffffffffffffffffff82610163565b6101aa8683610163565b95508019841693508086168417925050509392505050565b6000819050919050565b6000819050919050565b60006101f16101ec6101e7846101c2565b6101cc565b6101c2565b9050919050565b6000819050919050565b61020b836101d6565b61021f610217826101f8565b848454610170565b825550505050565b600090565b610234610227565b61023f818484610202565b505050565b5b818110156102635761025860008261022c565b600181019050610245565b5050565b601f8211156102a8576102798161013e565b61028284610153565b81016020851015610291578190505b6102a561029d85610153565b830182610244565b50505b505050565b600082821c905092915050565b60006102cb600019846008026102ad565b1980831691505092915050565b60006102e483836102ba565b9150826002028217905092915050565b6102fd826100a4565b67ffffffffffffffff811115610316576103156100af565b5b610320825461010d565b61032b828285610267565b600060209050601f83116001811461035e576000841561034c578287015190505b61035685826102d8565b8655506103be565b601f19841661036c8661013e565b60005b828110156103945784890151825560018201915060208501945060208101905061036f565b868310156103b157848901516103ad601f8916826102ba565b8355505b6001600288020188555050505b505050505050565b612f73806103d56000396000f3fe608060405234801561001057600080fd5b50600436106101215760003560e01c80635909c0d5116100ad57806389afcb441161007157806389afcb441461031057806395d89b4114610341578063a9059cbb1461035f578063d21220a71461038f578063dd62ed3e146103ad57610121565b80635909c0d5146102565780635a3d5493146102745780636a6278421461029257806370a08231146102c25780637464fc3d146102f257610121565b80630dfe1681116100f45780630dfe1681146101b057806318160ddd146101ce57806323b872dd146101ec578063313ce5671461021c578063485cc9551461023a57610121565b8063022c0d9f1461012657806306fdde03146101425780630902f1ac14610160578063095ea7b314610180575b600080fd5b610140600480360381019061013b9190612263565b6103dd565b005b61014a61099b565b604051610157919061237b565b60405180910390f35b610168610a2d565b604051610177939291906123e5565b60405180910390f35b61019a6004803603810190610195919061241c565b610a8a565b6040516101a79190612477565b60405180910390f35b6101b8610aad565b6040516101c591906124a1565b60405180910390f35b6101d6610ad3565b6040516101e391906124cb565b60405180910390f35b610206600480360381019061020191906124e6565b610add565b6040516102139190612477565b60405180910390f35b610224610b0c565b6040516102319190612555565b60405180910390f35b610254600480360381019061024f9190612570565b610b15565b005b61025e610c86565b60405161026b91906124cb565b60405180910390f35b61027c610c8c565b60405161028991906124cb565b60405180910390f35b6102ac60048036038101906102a791906125b0565b610c92565b6040516102b991906124cb565b60405180910390f35b6102dc60048036038101906102d791906125b0565b610fef565b6040516102e991906124cb565b60405180910390f35b6102fa611037565b60405161030791906124cb565b60405180910390f35b61032a600480360381019061032591906125b0565b61103d565b6040516103389291906125dd565b60405180910390f35b610349611466565b604051610356919061237b565b60405180910390f35b6103796004803603810190610374919061241c565b6114f8565b6040516103869190612477565b60405180910390f35b61039761151b565b6040516103a491906124a1565b60405180910390f35b6103c760048036038101906103c29190612570565b611541565b6040516103d491906124cb565b60405180910390f35b60008511806103ec5750600084115b61042b576040517f08c379a000000000000000000000000000000000000000000000000000000000815260040161042290612652565b60405180910390fd5b600080610436610a2d565b5091509150816dffffffffffffffffffffffffffff16871080156104695750806dffffffffffffffffffffffffffff1686105b6104a8576040517f08c379a000000000000000000000000000000000000000000000000000000000815260040161049f906126be565b60405180910390fd5b6000806000600560009054906101000a900473ffffffffffffffffffffffffffffffffffffffff1690506000600660009054906101000a900473ffffffffffffffffffffffffffffffffffffffff1690508173ffffffffffffffffffffffffffffffffffffffff168973ffffffffffffffffffffffffffffffffffffffff161415801561056157508073ffffffffffffffffffffffffffffffffffffffff168973ffffffffffffffffffffffffffffffffffffffff1614155b6105a0576040517f08c379a00000000000000000000000000000000000000000000000000000000081526004016105979061272a565b60405180910390fd5b60008b11156105b5576105b4828a8d6115c8565b5b60008a11156105ca576105c9818a8c6115c8565b5b600088889050111561064a578873ffffffffffffffffffffffffffffffffffffffff166310d1e85c338d8d8c8c6040518663ffffffff1660e01b8152600401610617959493929190612797565b600060405180830381600087803b15801561063157600080fd5b505af1158015610645573d6000803e3d6000fd5b505050505b8173ffffffffffffffffffffffffffffffffffffffff166370a08231306040518263ffffffff1660e01b815260040161068391906124a1565b602060405180830381865afa1580156106a0573d6000803e3d6000fd5b505050506040513d601f19601f820116820180604052508101906106c491906127fa565b93508073ffffffffffffffffffffffffffffffffffffffff166370a08231306040518263ffffffff1660e01b81526004016106ff91906124a1565b602060405180830381865afa15801561071c573d6000803e3d6000fd5b505050506040513d601f19601f8201168201806040525081019061074091906127fa565b92505050600089856dffffffffffffffffffffffffffff166107629190612856565b831161076f576000610797565b89856dffffffffffffffffffffffffffff1661078b9190612856565b836107969190612856565b5b9050600089856dffffffffffffffffffffffffffff166107b79190612856565b83116107c45760006107ec565b89856dffffffffffffffffffffffffffff166107e09190612856565b836107eb9190612856565b5b905060008211806107fd5750600081115b61083c576040517f08c379a0000000000000000000000000000000000000000000000000000000008152600401610833906128d6565b60405180910390fd5b600060038361084b91906128f6565b6103e88661085991906128f6565b6108639190612856565b9050600060038361087491906128f6565b6103e88661088291906128f6565b61088c9190612856565b9050620f4240876dffffffffffffffffffffffffffff16896dffffffffffffffffffffffffffff166108be91906128f6565b6108c891906128f6565b81836108d491906128f6565b1015610915576040517f08c379a000000000000000000000000000000000000000000000000000000000815260040161090c90612984565b60405180910390fd5b50506109238484888861171d565b8873ffffffffffffffffffffffffffffffffffffffff163373ffffffffffffffffffffffffffffffffffffffff167fd78ad95fa46c994b6551d0da85fc275fe613ce37657fb8d5e3d130840159d82284848f8f60405161098694939291906129a4565b60405180910390a35050505050505050505050565b6060600380546109aa90612a18565b80601f01602080910402602001604051908101604052809291908181526020018280546109d690612a18565b8015610a235780601f106109f857610100808354040283529160200191610a23565b820191906000526020600020905b815481529060010190602001808311610a0657829003601f168201915b5050505050905090565b6000806000600760009054906101000a90046dffffffffffffffffffffffffffff1692506007600e9054906101000a90046dffffffffffffffffffffffffffff1691506007601c9054906101000a900463ffffffff169050909192565b600080610a956119cf565b9050610aa28185856119d7565b600191505092915050565b600560009054906101000a900473ffffffffffffffffffffffffffffffffffffffff1681565b6000600254905090565b600080610ae86119cf565b9050610af58582856119e9565b610b00858585611a7e565b60019150509392505050565b60006012905090565b600073ffffffffffffffffffffffffffffffffffffffff16600560009054906101000a900473ffffffffffffffffffffffffffffffffffffffff1673ffffffffffffffffffffffffffffffffffffffff16148015610bc15750600073ffffffffffffffffffffffffffffffffffffffff16600660009054906101000a900473ffffffffffffffffffffffffffffffffffffffff1673ffffffffffffffffffffffffffffffffffffffff16145b610c00576040517f08c379a0000000000000000000000000000000000000000000000000000000008152600401610bf790612a95565b60405180910390fd5b81600560006101000a81548173ffffffffffffffffffffffffffffffffffffffff021916908373ffffffffffffffffffffffffffffffffffffffff16021790555080600660006101000a81548173ffffffffffffffffffffffffffffffffffffffff021916908373ffffffffffffffffffffffffffffffffffffffff1602179055505050565b60085481565b60095481565b6000806000610c9f610a2d565b50915091506000600560009054906101000a900473ffffffffffffffffffffffffffffffffffffffff1673ffffffffffffffffffffffffffffffffffffffff166370a08231306040518263ffffffff1660e01b8152600401610d0191906124a1565b602060405180830381865afa158015610d1e573d6000803e3d6000fd5b505050506040513d601f19601f82011682018060405250810190610d4291906127fa565b90506000600660009054906101000a900473ffffffffffffffffffffffffffffffffffffffff1673ffffffffffffffffffffffffffffffffffffffff166370a08231306040518263ffffffff1660e01b8152600401610da191906124a1565b602060405180830381865afa158015610dbe573d6000803e3d6000fd5b505050506040513d601f19601f82011682018060405250810190610de291906127fa565b90506000846dffffffffffffffffffffffffffff1683610e029190612856565b90506000846dffffffffffffffffffffffffffff1683610e229190612856565b90506000610e2e610ad3565b905060008103610e6d576103e8610e4f8385610e4a91906128f6565b611b72565b610e599190612856565b9750610e6860006103e8611bec565b610ec6565b610ec3876dffffffffffffffffffffffffffff168285610e8d91906128f6565b610e979190612ae4565b876dffffffffffffffffffffffffffff168385610eb491906128f6565b610ebe9190612ae4565b611c6e565b97505b60008811610f09576040517f08c379a0000000000000000000000000000000000000000000000000000000008152600401610f0090612b61565b60405180910390fd5b610f138989611bec565b610f1f8585898961171d565b6000811115610f93576007600e9054906101000a90046dffffffffffffffffffffffffffff166dffffffffffffffffffffffffffff16600760009054906101000a90046dffffffffffffffffffffffffffff166dffffffffffffffffffffffffffff16610f8c91906128f6565b600a819055505b3373ffffffffffffffffffffffffffffffffffffffff167f4c209b5fc8ad50758f13e2e1088ba56a560dff690a1c6fef26394f4c03821c4f8484604051610fdb9291906125dd565b60405180910390a250505050505050919050565b60008060008373ffffffffffffffffffffffffffffffffffffffff1673ffffffffffffffffffffffffffffffffffffffff168152602001908152602001600020549050919050565b600a5481565b6000806000600560009054906101000a900473ffffffffffffffffffffffffffffffffffffffff1690506000600660009054906101000a900473ffffffffffffffffffffffffffffffffffffffff16905060008273ffffffffffffffffffffffffffffffffffffffff166370a08231306040518263ffffffff1660e01b81526004016110c991906124a1565b602060405180830381865afa1580156110e6573d6000803e3d6000fd5b505050506040513d601f19601f8201168201806040525081019061110a91906127fa565b905060008273ffffffffffffffffffffffffffffffffffffffff166370a08231306040518263ffffffff1660e01b815260040161114791906124a1565b602060405180830381865afa158015611164573d6000803e3d6000fd5b505050506040513d601f19601f8201168201806040525081019061118891906127fa565b9050600061119530610fef565b905060006111a1610ad3565b90508084836111b091906128f6565b6111ba9190612ae4565b97508083836111c991906128f6565b6111d39190612ae4565b96506000881180156111e55750600087115b611224576040517f08c379a000000000000000000000000000000000000000000000000000000000815260040161121b90612bcd565b60405180910390fd5b61122e3083611c88565b611239868a8a6115c8565b611244858a896115c8565b8573ffffffffffffffffffffffffffffffffffffffff166370a08231306040518263ffffffff1660e01b815260040161127d91906124a1565b602060405180830381865afa15801561129a573d6000803e3d6000fd5b505050506040513d601f19601f820116820180604052508101906112be91906127fa565b93508473ffffffffffffffffffffffffffffffffffffffff166370a08231306040518263ffffffff1660e01b81526004016112f991906124a1565b602060405180830381865afa158015611316573d6000803e3d6000fd5b505050506040513d601f19601f8201168201806040525081019061133a91906127fa565b92506113808484600760009054906101000a90046dffffffffffffffffffffffffffff166007600e9054906101000a90046dffffffffffffffffffffffffffff1661171d565b60008111156113f4576007600e9054906101000a90046dffffffffffffffffffffffffffff166dffffffffffffffffffffffffffff16600760009054906101000a90046dffffffffffffffffffffffffffff166dffffffffffffffffffffffffffff166113ed91906128f6565b600a819055505b8873ffffffffffffffffffffffffffffffffffffffff163373ffffffffffffffffffffffffffffffffffffffff167fdccd412f0b1252819cb1fd330b93224ca42612892bb3f4f789976e6d819364968a8a6040516114539291906125dd565b60405180910390a3505050505050915091565b60606004805461147590612a18565b80601f01602080910402602001604051908101604052809291908181526020018280546114a190612a18565b80156114ee5780601f106114c3576101008083540402835291602001916114ee565b820191906000526020600020905b8154815290600101906020018083116114d157829003601f168201915b5050505050905090565b6000806115036119cf565b9050611510818585611a7e565b600191505092915050565b600660009054906101000a900473ffffffffffffffffffffffffffffffffffffffff1681565b6000600160008473ffffffffffffffffffffffffffffffffffffffff1673ffffffffffffffffffffffffffffffffffffffff16815260200190815260200160002060008373ffffffffffffffffffffffffffffffffffffffff1673ffffffffffffffffffffffffffffffffffffffff16815260200190815260200160002054905092915050565b6000808473ffffffffffffffffffffffffffffffffffffffff1663a9059cbb60e01b85856040516024016115fd929190612bed565b604051602081830303815290604052907bffffffffffffffffffffffffffffffffffffffffffffffffffffffff19166020820180517bffffffffffffffffffffffffffffffffffffffffffffffffffffffff83818316178352505050506040516116679190612c5d565b6000604051808303816000865af19150503d80600081146116a4576040519150601f19603f3d011682016040523d82523d6000602084013e6116a9565b606091505b50915091508180156116d757506000815114806116d65750808060200190518101906116d59190612ca0565b5b5b611716576040517f08c379a000000000000000000000000000000000000000000000000000000000815260040161170d90612d19565b60405180910390fd5b5050505050565b6dffffffffffffffffffffffffffff8016841115801561174d57506dffffffffffffffffffffffffffff80168311155b61178c576040517f08c379a000000000000000000000000000000000000000000000000000000000815260040161178390612d85565b60405180910390fd5b60006401000000004261179f9190612da5565b905060006007601c9054906101000a900463ffffffff16826117c19190612dd6565b905060008163ffffffff161180156117ea57506000846dffffffffffffffffffffffffffff1614155b801561180757506000836dffffffffffffffffffffffffffff1614155b156118cb57600061181784611d0a565b9050600061182486611d0a565b90508263ffffffff166118378388611d3e565b7bffffffffffffffffffffffffffffffffffffffffffffffffffffffff1661185f91906128f6565b600860008282546118709190612e0e565b925050819055508263ffffffff166118888287611d3e565b7bffffffffffffffffffffffffffffffffffffffffffffffffffffffff166118b091906128f6565b600960008282546118c19190612e0e565b9250508190555050505b85600760006101000a8154816dffffffffffffffffffffffffffff02191690836dffffffffffffffffffffffffffff160217905550846007600e6101000a8154816dffffffffffffffffffffffffffff02191690836dffffffffffffffffffffffffffff160217905550816007601c6101000a81548163ffffffff021916908363ffffffff1602179055507f1c411e9a96e071241c2f21f7726b17ae89e3cab4c78be50e062b03a9fffbbad1600760009054906101000a90046dffffffffffffffffffffffffffff166007600e9054906101000a90046dffffffffffffffffffffffffffff166040516119bf929190612e42565b60405180910390a1505050505050565b600033905090565b6119e48383836001611d64565b505050565b60006119f58484611541565b90507fffffffffffffffffffffffffffffffffffffffffffffffffffffffffffffffff811015611a785781811015611a68578281836040517ffb8f41b2000000000000000000000000000000000000000000000000000000008152600401611a5f93929190612e6b565b60405180910390fd5b611a7784848484036000611d64565b5b50505050565b600073ffffffffffffffffffffffffffffffffffffffff168373ffffffffffffffffffffffffffffffffffffffff1603611af05760006040517f96c6fd1e000000000000000000000000000000000000000000000000000000008152600401611ae791906124a1565b60405180910390fd5b600073ffffffffffffffffffffffffffffffffffffffff168273ffffffffffffffffffffffffffffffffffffffff1603611b625760006040517fec442f05000000000000000000000000000000000000000000000000000000008152600401611b5991906124a1565b60405180910390fd5b611b6d838383611f3b565b505050565b60006003821115611bd95781905060006001600284611b919190612ae4565b611b9b9190612e0e565b90505b81811015611bd3578091506002818285611bb89190612ae4565b611bc29190612e0e565b611bcc9190612ae4565b9050611b9e565b50611be7565b60008214611be657600190505b5b919050565b600073ffffffffffffffffffffffffffffffffffffffff168273ffffffffffffffffffffffffffffffffffffffff1603611c5e5760006040517fec442f05000000000000000000000000000000000000000000000000000000008152600401611c5591906124a1565b60405180910390fd5b611c6a60008383611f3b565b5050565b600081831115611c7e5781611c80565b825b905092915050565b600073ffffffffffffffffffffffffffffffffffffffff168273ffffffffffffffffffffffffffffffffffffffff1603611cfa5760006040517f96c6fd1e000000000000000000000000000000000000000000000000000000008152600401611cf191906124a1565b60405180910390fd5b611d0682600083611f3b565b5050565b60006e010000000000000000000000000000826dffffffffffffffffffffffffffff16611d379190612eca565b9050919050565b6000816dffffffffffffffffffffffffffff1683611d5c9190612f0c565b905092915050565b600073ffffffffffffffffffffffffffffffffffffffff168473ffffffffffffffffffffffffffffffffffffffff1603611dd65760006040517fe602df05000000000000000000000000000000000000000000000000000000008152600401611dcd91906124a1565b60405180910390fd5b600073ffffffffffffffffffffffffffffffffffffffff168373ffffffffffffffffffffffffffffffffffffffff1603611e485760006040517f94280d62000000000000000000000000000000000000000000000000000000008152600401611e3f91906124a1565b60405180910390fd5b81600160008673ffffffffffffffffffffffffffffffffffffffff1673ffffffffffffffffffffffffffffffffffffffff16815260200190815260200160002060008573ffffffffffffffffffffffffffffffffffffffff1673ffffffffffffffffffffffffffffffffffffffff168152602001908152602001600020819055508015611f35578273ffffffffffffffffffffffffffffffffffffffff168473ffffffffffffffffffffffffffffffffffffffff167f8c5be1e5ebec7d5bd14f71427d1e84f3dd0314c0f7b2291e5b200ac8c7c3b92584604051611f2c91906124cb565b60405180910390a35b50505050565b600073ffffffffffffffffffffffffffffffffffffffff168373ffffffffffffffffffffffffffffffffffffffff1603611f8d578060026000828254611f819190612e0e565b92505081905550612060565b60008060008573ffffffffffffffffffffffffffffffffffffffff1673ffffffffffffffffffffffffffffffffffffffff16815260200190815260200160002054905081811015612019578381836040517fe450d38c00000000000000000000000000000000000000000000000000000000815260040161201093929190612e6b565b60405180910390fd5b8181036000808673ffffffffffffffffffffffffffffffffffffffff1673ffffffffffffffffffffffffffffffffffffffff16815260200190815260200160002081905550505b600073ffffffffffffffffffffffffffffffffffffffff168273ffffffffffffffffffffffffffffffffffffffff16036120a957806002600082825403925050819055506120f6565b806000808473ffffffffffffffffffffffffffffffffffffffff1673ffffffffffffffffffffffffffffffffffffffff168152602001908152602001600020600082825401925050819055505b8173ffffffffffffffffffffffffffffffffffffffff168373ffffffffffffffffffffffffffffffffffffffff167fddf252ad1be2c89b69c2b068fc378daa952ba7f163c4a11628f55a4df523b3ef8360405161215391906124cb565b60405180910390a3505050565b600080fd5b600080fd5b6000819050919050565b61217d8161216a565b811461218857600080fd5b50565b60008135905061219a81612174565b92915050565b600073ffffffffffffffffffffffffffffffffffffffff82169050919050565b60006121cb826121a0565b9050919050565b6121db816121c0565b81146121e657600080fd5b50565b6000813590506121f8816121d2565b92915050565b600080fd5b600080fd5b600080fd5b60008083601f840112612223576122226121fe565b5b8235905067ffffffffffffffff8111156122405761223f612203565b5b60208301915083600182028301111561225c5761225b612208565b5b9250929050565b60008060008060006080868803121561227f5761227e612160565b5b600061228d8882890161218b565b955050602061229e8882890161218b565b94505060406122af888289016121e9565b935050606086013567ffffffffffffffff8111156122d0576122cf612165565b5b6122dc8882890161220d565b92509250509295509295909350565b600081519050919050565b600082825260208201905092915050565b60005b8381101561232557808201518184015260208101905061230a565b60008484015250505050565b6000601f19601f8301169050919050565b600061234d826122eb565b61235781856122f6565b9350612367818560208601612307565b61237081612331565b840191505092915050565b600060208201905081810360008301526123958184612342565b905092915050565b60006dffffffffffffffffffffffffffff82169050919050565b6123c08161239d565b82525050565b600063ffffffff82169050919050565b6123df816123c6565b82525050565b60006060820190506123fa60008301866123b7565b61240760208301856123b7565b61241460408301846123d6565b949350505050565b6000806040838503121561243357612432612160565b5b6000612441858286016121e9565b92505060206124528582860161218b565b9150509250929050565b60008115159050919050565b6124718161245c565b82525050565b600060208201905061248c6000830184612468565b92915050565b61249b816121c0565b82525050565b60006020820190506124b66000830184612492565b92915050565b6124c58161216a565b82525050565b60006020820190506124e060008301846124bc565b92915050565b6000806000606084860312156124ff576124fe612160565b5b600061250d868287016121e9565b935050602061251e868287016121e9565b925050604061252f8682870161218b565b9150509250925092565b600060ff82169050919050565b61254f81612539565b82525050565b600060208201905061256a6000830184612546565b92915050565b6000806040838503121561258757612586612160565b5b6000612595858286016121e9565b92505060206125a6858286016121e9565b9150509250929050565b6000602082840312156125c6576125c5612160565b5b60006125d4848285016121e9565b91505092915050565b60006040820190506125f260008301856124bc565b6125ff60208301846124bc565b9392505050565b7f494e53554646494349454e545f4f55545055545f414d4f554e54000000000000600082015250565b600061263c601a836122f6565b915061264782612606565b602082019050919050565b6000602082019050818103600083015261266b8161262f565b9050919050565b7f494e53554646494349454e545f4c495155494449545900000000000000000000600082015250565b60006126a86016836122f6565b91506126b382612672565b602082019050919050565b600060208201905081810360008301526126d78161269b565b9050919050565b7f494e56414c49445f544f00000000000000000000000000000000000000000000600082015250565b6000612714600a836122f6565b915061271f826126de565b602082019050919050565b6000602082019050818103600083015261274381612707565b9050919050565b600082825260208201905092915050565b82818337600083830152505050565b6000612776838561274a565b935061278383858461275b565b61278c83612331565b840190509392505050565b60006080820190506127ac6000830188612492565b6127b960208301876124bc565b6127c660408301866124bc565b81810360608301526127d981848661276a565b90509695505050505050565b6000815190506127f481612174565b92915050565b6000602082840312156128105761280f612160565b5b600061281e848285016127e5565b91505092915050565b7f4e487b7100000000000000000000000000000000000000000000000000000000600052601160045260246000fd5b60006128618261216a565b915061286c8361216a565b925082820390508181111561288457612883612827565b5b92915050565b7f494e53554646494349454e545f494e5055545f414d4f554e5400000000000000600082015250565b60006128c06019836122f6565b91506128cb8261288a565b602082019050919050565b600060208201905081810360008301526128ef816128b3565b9050919050565b60006129018261216a565b915061290c8361216a565b925082820261291a8161216a565b9150828204841483151761293157612930612827565b5b5092915050565b7f4b00000000000000000000000000000000000000000000000000000000000000600082015250565b600061296e6001836122f6565b915061297982612938565b602082019050919050565b6000602082019050818103600083015261299d81612961565b9050919050565b60006080820190506129b960008301876124bc565b6129c660208301866124bc565b6129d360408301856124bc565b6129e060608301846124bc565b95945050505050565b7f4e487b7100000000000000000000000000000000000000000000000000000000600052602260045260246000fd5b60006002820490506001821680612a3057607f821691505b602082108103612a4357612a426129e9565b5b50919050565b7f416c726561647920696e697469616c697a656400000000000000000000000000600082015250565b6000612a7f6013836122f6565b9150612a8a82612a49565b602082019050919050565b60006020820190508181036000830152612aae81612a72565b9050919050565b7f4e487b7100000000000000000000000000000000000000000000000000000000600052601260045260246000fd5b6000612aef8261216a565b9150612afa8361216a565b925082612b0a57612b09612ab5565b5b828204905092915050565b7f494e53554646494349454e545f4c49515549444954595f4d494e544544000000600082015250565b6000612b4b601d836122f6565b9150612b5682612b15565b602082019050919050565b60006020820190508181036000830152612b7a81612b3e565b9050919050565b7f494e53554646494349454e545f4c49515549444954595f4255524e4544000000600082015250565b6000612bb7601d836122f6565b9150612bc282612b81565b602082019050919050565b60006020820190508181036000830152612be681612baa565b9050919050565b6000604082019050612c026000830185612492565b612c0f60208301846124bc565b9392505050565b600081519050919050565b600081905092915050565b6000612c3782612c16565b612c418185612c21565b9350612c51818560208601612307565b80840191505092915050565b6000612c698284612c2c565b915081905092915050565b612c7d8161245c565b8114612c8857600080fd5b50565b600081519050612c9a81612c74565b92915050565b600060208284031215612cb657612cb5612160565b5b6000612cc484828501612c8b565b91505092915050565b7f5452414e534645525f4641494c45440000000000000000000000000000000000600082015250565b6000612d03600f836122f6565b9150612d0e82612ccd565b602082019050919050565b60006020820190508181036000830152612d3281612cf6565b9050919050565b7f4f564552464c4f57000000000000000000000000000000000000000000000000600082015250565b6000612d6f6008836122f6565b9150612d7a82612d39565b602082019050919050565b60006020820190508181036000830152612d9e81612d62565b9050919050565b6000612db08261216a565b9150612dbb8361216a565b925082612dcb57612dca612ab5565b5b828206905092915050565b6000612de1826123c6565b9150612dec836123c6565b9250828203905063ffffffff811115612e0857612e07612827565b5b92915050565b6000612e198261216a565b9150612e248361216a565b9250828201905080821115612e3c57612e3b612827565b5b92915050565b6000604082019050612e5760008301856123b7565b612e6460208301846123b7565b9392505050565b6000606082019050612e806000830186612492565b612e8d60208301856124bc565b612e9a60408301846124bc565b949350505050565b60007bffffffffffffffffffffffffffffffffffffffffffffffffffffffff82169050919050565b6000612ed582612ea2565b9150612ee083612ea2565b9250828202612eee81612ea2565b91508282048414831517612f0557612f04612827565b5b5092915050565b6000612f1782612ea2565b9150612f2283612ea2565b925082612f3257612f31612ab5565b5b82820490509291505056fea26469706673582212209034761a81e9219a76925917b0d427a18f98a505b9813ec4eeeb859365e0c5d964736f6c634300081c0033a2646970667358221220caebe77023a7759677547832d6eeaf57310f425253503f6bb8a60ec24f4c578564736f6c634300081c0033",
  "linkReferences": {},
  "deployedLinkReferences": {}
}